:020000040802F0
:10000000882C00209D01020887150208FB140208B5
:1000100085150208D9030208F5190208000000003E
:100020000000000000000000000000008B15020826
:10003000DB03020800000000891502088D15020884
:10004000B7010208B7010208B7010208B7010208A8
:10005000B7010208B7010208B7010208B701020898
:10006000B7010208B7010208B7010208B701020888
:10007000B7010208B7010208B7010208B701020878
:10008000B7010208B7010208B7010208B701020868
:10009000B7010208B7010208B7010208B701020858
:1000A000B7010208B7010208B7010208B701020848
:1000B000B7010208B7010208B7010208B701020838
:1000C000B7010208B7010208B7010208B701020828
:1000D000B701020815190208B7010208B7010208A2
:1000E000B7010208B7010208B7010208B701020808
:1000F000B7010208B7010208B7010208B7010208F8
:10010000B7010208B7010208B7010208B7010208E7
:10011000B7010208B7010208B7010208B7010208D7
:10012000B7010208B7010208B7010208B7010208C7
:10013000B7010208B7010208B7010208B7010208B7
:10014000B7010208B7010208B7010208B7010208A7
:10015000B7010208B7010208B7010208B701020897
:10016000B7010208B7010208B7010208B701020887
:10017000B7010208B7010208B70102080000000039
:10018000B7010208B7010208DFF80CD000F07AF8D6
:1001900000480047311D0208882C0020064880478F
:1001A00006480047FEE7FEE7FEE7FEE7FEE7FEE75C
:1001B000FEE7FEE7FEE7FEE72516020889010208D2
:1001C0002DE9F05F0546002092469B46884606468C
:1001D000814640241BE0284641464746224600F01F
:1001E00041F853465A46C01A914110D31146184659
:1001F000224600F028F82D1A67EB01084F462246E8
:100200000120002100F01FF817EB00094E41201ECD
:10021000A4F10104DFDC484631462A464346BDE8E6
:10022000F09FD2B201E000F8012B491EFBD27047CB
:100230000022F6E710B513460A4604461946FFF7B2
:10024000F0FF204610BD202A04DB203A00FA02F11C
:10025000002070479140C2F1200320FA03F31943B4
:1002600090407047202A04DB203A21FA02F0002156
:10027000704721FA02F3D040C2F1200291400843B6
:1002800019467047064C074D06E0E06840F0010350
:1002900094E8070098471034AC42F6D3FFF778FF94
:1002A000C41D0208E41D020870B5064614460D463A
:1002B000062000F00FF822462946304600F046F8A6
:1002C0000221084601F02CFB3046BDE8704001F0E9
:1002D00015B9000000B587B0002101910121CDE9D9
:1002E00002100220CDE9041000F088FA20B108A025
:1002F00001F082FB07B000BD694601A800F0EAF9F1
:1003000018B109A0009901F077FB00F02FFAF1E78E
:10031000466C61736820556E6C6F636B204572721A
:100320006F720D0A00000000466C61736820457210
:10033000617365204572726F722C2070616765452C
:1003400072726F72203D2025750D0A002DE9F04173
:1003500015460E46074600F051FA20B1BDE8F041BF
:100360000CA001F049BB00240DE00023325D3919D7
:10037000184600F005FA28B10C4821180CA001F02D
:100380003BFB02E0641CAC42EFD3BDE8F04100F05F
:10039000EDB90000466C61736820556E6C6F636B3D
:1003A000204572726F720D0A000000000000040800
:1003B000466C6173682050726F6772616D20457280
:1003C000726F72206174206164647265737320308F
:1003D0007825580D0A000000FEE7704772B6FEE768
:1003E000002229B101291AD002291BD04FF44072F2
:1003F0000E490B6823F440730B600B6813430B60CA
:100400000A6822F0F8020A600A68022303EBC000BF
:1004100002430A60086840F48030086070474FF477
:100420008072E5E74FF40072E2E70000103C024002
:100430001348016889050FD5016821F40071016036
:10044000016841F400610160016821F4006101600C
:10045000016841F400710160016849050FD5016828
:1004600021F480610160016841F4805101600168FC
:1004700021F480510160016841F48061016070479E
:10048000003C024008490A6822F440720A600A6887
:1004900042F004020A600A684FF4803343EA002005
:1004A00002430A6070470000103C0240064A13688D
:1004B00023F44073136013681360136843F001035F
:1004C0001360017070470000103C0240094910B5EC
:1004D0000C6824F440740C600C6844F440740C60A4
:1004E0000C6844F001040C600260BFF36F8F43603E
:1004F00010BD0000103C0240074A136823F440730B
:100500001360136843F480731360136843F00103AE
:100510001360018070470000103C0240074A1368D6
:1005200023F440731360136843F40073136013687B
:1005300043F001031360016070470000103C02406B
:1005400017490868C206174805D5C26942F010026B
:10055000C26110220A600A68920605D5C26942F09B
:100560000802C26120220A600A68520605D5C269E3
:1005700042F00402C26140220A600A68120605D5F0
:10058000C26942F00202C26180220A600A689207D0
:1005900005D5C26942F02002C2610220086070479E
:1005A0000C3C02406828002070B511490446002028
:1005B000C86100F031FA06460E4D09E0601C07D014
:1005C00024B100F029FA801BA04201D9032070BD9C
:1005D0002868C003F2D42868C00701D00120286031
:1005E000286810F0F200F2D0FFF7AAFF012070BDDA
:1005F000682800200C3C02402DE9F0410446876D3C
:1006000000F00AFA064694F835000025022806D0C4
:100610008020606584F834500120BDE8F0812068B6
:10062000016821F0160101602068416921F0800114
:100630004161206C08B9A06C20B12068016821F0EC
:10064000080101602068016821F0010101600CE0EF
:1006500000F0E2F9801B052807D9202060650320FF
:1006600084F8350084F83450D7E720680068C00764
:10067000EED194F85C103F208840B860012084F8E7
:10068000350084F834500020C7E790F8351002296F
:1006900003D08021416501207047052180F8351085
:1006A0000068016821F0010101600020704700002E
:1006B00070B5044600F0B0F90546601C02D004484D
:1006C0000078044400F0A8F9401BA042FAD370BDA2
:1006D0000C0000202DE9F047044622480F46017E19
:1006E00001290AD00121804601764CF25039484652
:1006F000FFF75AFF020003D02FE00220BDE8F08789
:100700004FF0FF3038602068174D012801D0A668EF
:100710001CE0207C6168FFF7B5FE4846FFF744FF08
:100720000246286820F00400286014E0217C30464E
:10073000FFF756FE4846FFF737FF0200286820F013
:10074000FA00286001D03E6005E0761CD4E9021072
:100750000844B042EAD8FFF76BFE002188F8181071
:100760001046CBE768280020103C0240034801688F
:1007700041F000410160002070470000103C024041
:100780002DE9F0471B4E05461446307E1F4689462C
:10079000012808D0012030764CF250384046FFF74F
:1007A00003FF18B114E00220BDE8F0879DB1012DD0
:1007B00016D0022D19D022463B464846FFF786FE4A
:1007C0004046FFF7F1FE0C490A6822F001020A6078
:1007D00000213176E8E7E1B24846FFF767FEEFE730
:1007E000A1B24846FFF788FEEAE721464846FFF7F0
:1007F00095FEE5E768280020103C024007490020EC
:100800000A68002A09DA054A054B0C3A1360054BC1
:1008100013600968002900DA01207047103C02408B
:1008200023016745AB89EFCD2DE9F84FDFF8BCA177
:100830000022012503264FF00F090AF1040BAAF14B
:10084000040E00BF0B6805FA02F42340A34270D1E6
:100850000F7907F00307012F01D0022F16D1876807
:100860004FEA420806FA08FC27EA0C07D1F80CC048
:100870000CFA08FC4CEA070CC0F808C04768A7430C
:100880000C79C4F3001494403C4344600C79E44375
:10089000A4070AD0C4684FEA420C06FA0CF7BC431E
:1008A0008F6807FA0CF72743C7600C7904F003043C
:1008B000022C12D1D40800EB840CDCF8204057073E
:1008C000FF0E09FA07F824EA0804D1F8108008FAA4
:1008D00007F848EA0408CCF8208004684FEA420C84
:1008E00006FA0CF7BC430F7907F0030707FA0CF779
:1008F000274307604C6814F4403F70D03C4C276895
:1009000047F480472760246822F0030704F48044FA
:100910000094384C07EB040CDCF8084897074FEAC2
:10092000177809FA08F7BC43334FB84202D10027C1
:1009300024E054E0314FB84201D101271EE0304F8E
:10094000B84201D1022719E02E4FB84201D1032746
:1009500014E02D4FB84201D104270FE02B4FB842CD
:1009600001D105270AE02A4FB84201D1062705E048
:10097000284FB84201D1072700E0082707FA08F7F7
:100980002743CCF80878DAF800405746D1F804C07D
:100990009C435FEACC2C00D51C433C60DBF8004054
:1009A0005F46D1F804C09C435FEA8C2C00D51C4301
:1009B0003C60DEF800407746D1F804C09C435FEA13
:1009C0008C3C00D51C433C60084F083F3C68D1F884
:1009D00004C09C435FEACC3C00D51C433C60521CE5
:1009E000102AFFF42FAFBDE8F88F0000083C01404B
:1009F0004438024000300140000002400004024040
:100A000000080240000C02400010024000140240A6
:100A100000180240001C0240014880687047000036
:100A20000C00002002488168027811448160704700
:100A30000C0000200B4810B5016841F40071016002
:100A4000016841F480610160016841F480710160D6
:100A5000032000F06FF80F2000F006F800F024F8F3
:100A6000002010BD003C024070B50D4D04464FF40F
:100A70007A712878B1FBF0F00A490968B1FBF0F00F
:100A800000F00AFB48B9102C07D200222146501E64
:100A900000F030F800206C6070BD012070BD0000D7
:100AA0000C000020180000200A4808B5016841F435
:100AB00080410160006800F4804000900548001FFC
:100AC000016841F080510160006800F080500090A2
:100AD00008BD000044380240002809DB00F01F0276
:100AE000012191404009800000F1E020C0F8001190
:100AF00070470000F0B40E4B1B680C46C3F3022392
:100B0000C3F10705042D00D90425191D072901D2B9
:100B1000002300E0DB1E012606FA05F1491E2140F4
:100B200099409E40761E16403143F0BC00F074BFE1
:100B30000CED00E0064900F0070208684FF6FF03DD
:100B4000184040EA0220034A104308607047000042
:100B50000CED00E00000FA052DE9F0470E46050017
:100B600065D0DFF81481D8F80000F7B200F0070074
:100B7000B04207D288F80070D8F8000000F00700F3
:100B8000B04254D128683D4C810712D5400703D5A7
:100B9000206840F4E05020602878000703D52068E2
:100BA00040F4604020602068A96820F0F00008430D
:100BB00020602878C0072DD030496868083901289E
:100BC00012D0022813D0032811D009688907002900
:100BD0002DDA216821F0030101432160FFF71CFF9A
:100BE000814641F2883A0EE009688903EFE7096817
:100BF0008901ECE7FFF710FFA0EB0901514502D98D
:100C00000320BDE8F0872068696800F00C00B0EBB5
:100C1000810FEFD1D8F80010404601F00701B14232
:100C200007D90770006800F00700B04201D001202A
:100C3000E7E72878400705D52068E96820F4E05008
:100C4000084320602878000706D52068296920F429
:100C5000604040EAC100206000F038F82168084A8E
:100C6000C1F30311515CC84006490860064800689A
:100C7000FFF7FAFE0020C4E7003C024008380240BB
:100C8000AC1D02081800002010000020044805498F
:100C900000680968044AC1F38221515CC84070476A
:100CA0001800002008380240BC1D0208044805490D
:100CB00000680968044AC1F34231515CC84070477A
:100CC0001800002008380240BC1D0208154810B565
:100CD000006810F00C02144813D04110042A0FD001
:100CE000082A0ED10F4C241F2268236802F03F020D
:100CF0005B0207D52068C0F38810A0FB010106E065
:100D0000084610BD2168C1F38811A1FB0001002332
:100D1000FFF756FA2168C1F30141491C4900B0FBB5
:100D2000F1F010BD083802400024F4002DE9F84F1E
:100D300004006ED02078DFF84C93C007A9F10405B9
:100D40004AD009F104000168C1F38101012908D0EA
:100D50000068C0F3810002280AD1D9F800004002DF
:100D600006D52868800337D560680028E1D033E0D5
:100D70006068B0F5803F10D0B0F5A02F286810D083
:100D800020F480302860286820F480202860606883
:100D9000A8B1FFF741FE06460DE0286840F4803018
:100DA000F4E740F480202860F7E700BFFFF734FE47
:100DB000801B642873D828688003F7D50CE0FFF700
:100DC0002BFE064605E000BFFFF726FE801B6428C9
:100DD000F0D828688003F7D42078DFF8AC82800749
:100DE0004FF0000A3ED5A748001D016811F00C0F16
:100DF00008D00068C0F3810002280BD1D9F80000A8
:100E0000400207D42868800716D5E068012800D181
:100E100012E033E1E068B8B10120C8F80000FFF744
:100E2000FBFD064605E000BFFFF7F6FD801B02282C
:100E3000C0D828688007F7D52868216920F0F80015
:100E400040EAC10028600DE0C8F800A0FFF7E4FD0B
:100E5000064604E0FFF7E0FD801B02281FD8286843
:100E60008007F7D42078000722D5864F874861692C
:100E7000703771B101210160FFF7CEFD064604E035
:100E8000FFF7CAFD801B022809D838688007F7D50C
:100E90000EE0C0F800A0FFF7BFFD064605E082E0C7
:100EA000FFF7BAFD801B02287DD838688007F7D489
:100EB0002078400768D5DFF8CCB100270BF13C0B58
:100EC000DBF80000C0000BD4DBF8001041F08051CB
:100ED000CBF80010DBF80000012700F080500090F4
:100EE0006B4E3068C00510D4306840F480703060BC
:100EF000FFF792FD009005E0FFF78EFD0099401A84
:100F0000022850D83068C005F6D55E4EA0686C3611
:100F100001280FD00528306810D020F00100306083
:100F2000306820F004003060A068B8B1FFF774FDAD
:100F300000900FE0306840F00100F4E740F004005A
:100F40003060F7E7FFF768FD0099411A41F28830F9
:100F5000814266D830688007F4D50EE0FFF75CFD6B
:100F6000009007E0FFF758FD0099411A41F28830E0
:100F7000814256D830688007F4D42FB1DBF80010D6
:100F800021F08051CBF80010A069C8B33D49091D7C
:100F90000968C1F3810102294AD00228504607D0CE
:100FA000C8F8600000E03CE0FFF736FD04463BE097
:100FB0004746C8F86000FFF72FFD064605E000BF72
:100FC000FFF72AFD801B02282BD828688001F7D460
:100FD000D4E907010843A16A2E4A490802EB0141FE
:100FE000626A41EA8211084394F82C1040EA0161D8
:100FF000C9F8001001203866FFF70EFD044606E030
:101000003EE000BFFFF708FD001B022809D8286852
:101010008001F7D534E000BFFFF7FEFC001B02287B
:1010200002D90320BDE8F88F28688001F4D427E0B6
:101030000128F7D0D9F80000E26900F4800191425C
:101040001CD1226A00F03F01914217D147F6C071CE
:10105000626A0140B1EB821F10D1A26A4FF0FF33E8
:1010600000F4403103EB5202B1EB024F06D194F889
:101070002C1000F07060B0EB016F01D00120D1E7BF
:101080000020CFE70438024000004742800E47426C
:10109000007000400000FFFF10B5401EB0F1807FDF
:1010A00001D3012010BD4FF0E02460610F216017D3
:1010B00000F0B2FC0020A06107202061002010BDDC
:1010C00070477047F8B5016804460868CA684B69FC
:1010D00010F00F0F4FF0000559D003F0010602F495
:1010E0009077374365D0C10705D0D10503D5616C32
:1010F00041F001016164410705D5D90703D0616C56
:1011000041F002016164810705D5D90703D0616C04
:1011100041F004016164010707D502F02001314369
:1011200003D0616C41F008016164616C00293AD020
:10113000800604D5900602D5204600F0B0FA20685B
:101140004069616CC0F38010090700D460B3204689
:1011500000F07EFA20684069400621D520681430EE
:1011600050E8001F21F0400140E80012002AF5D1AC
:10117000E06BA8B16E490165E06BFFF786FA0028C5
:1011800011D0E06B016D01B0BDE8F0400847830667
:101190000FD593060DD52046BDE8F84000F07FBA84
:1011A0002046FFF78EFFF8BD2046FFF78AFF6564F3
:1011B000F8BD266B2023012E7DD1C6067BD5D60631
:1011C00079D508684868009048694FF002064006E3
:1011D00041D5E16B086840680004000CE8D0A28D9E
:1011E0008242E5D9E085C869B0F5807F2DD02068BE
:1011F0000C3050E8001F21F4807140E80012002AF2
:10120000F5D12068143050E8001F21F0010140E8BA
:101210000012002AF5D12068143050E8001F21F098
:10122000400140E80012002AF5D184F842302563DD
:1012300020680C3050E8001F21F0100140E8001237
:10124000002AF5D1E06BFFF7D7F96663A08DE18D39
:10125000401A81B22AE0A08DE18D401A81B2E08D62
:101260000028A5D00029A3D022680C3252E8000F34
:1012700020F4907042E80007002FF5D12068143068
:1012800050E8002F22F0010240E80027002FF5D19E
:1012900084F84230256320680C3050E8002F22F09B
:1012A000100240E80023002BF5D166632046FFF7CB
:1012B00007FFF8BDFFE705062BD5150629D594F8DD
:1012C00041002128F5D1A068B0F5805F01D12069E7
:1012D000B0B1206A411C2162216800784860E08C2E
:1012E000401E0004000CE084E3D12068C16821F0B6
:1012F0008001C1602068C16841F04001C160D8E749
:10130000206A0088C0F308004860206A801C2062C0
:10131000E5E74006CDD55006CBD5CA68204622F079
:101320004002CA6084F8413000F0E6F8C1E70000EE
:101330004116020870B5040004D094F8410000255D
:1013400010B106E0012070BD84F84050204600F046
:1013500023F8242084F841002068C16821F400515A
:10136000C160204600F0FCF92068016921F4904139
:1013700001612068416921F02A0141612068C1684A
:1013800041F40051C1606564202084F8410084F874
:1013900042006563002070BD10B586B0044614217C
:1013A0006846FEF745FF17492068884228D116484D
:1013B0000021026842F010020260006800F0100094
:1013C000059011481438026842F002020260006879
:1013D00000F002000590C02000900220CDE901013C
:1013E000032003900720049069460848FFF71CFA81
:1013F000002211462520FFF77DFB2520FFF76CFB1F
:1014000006B010BD00100140443802400004024004
:1014100090F84230202B01D00220704721B11AB140
:101420000023036300F022BA012070470749884275
:101430000BD10748074B816802785A54491C8160D8
:10144000014601220148FFF7E3BF70472028002032
:1014500000000020200000202DE9F843044690F809
:101460004100984616460D46202802D00220BDE8CD
:10147000F88385B17EB100206064212084F84100AA
:10148000FFF7CAFAA6848146E684A0682027B0F553
:10149000805F02D003E00120E9E7206910B12E4609
:1014A00000250EE000260CE08021204600F0F9F92E
:1014B000A8B9C6B116F8010B21684860E08C401E3F
:1014C000E084E08C4B464FF00002CDF8008000280D
:1014D000EAD14FF04001204600F0E3F940B184F832
:1014E00041700320C3E735F8020BC0F30800E3E7BF
:1014F00084F841700020BAE77047FEE772B60349EE
:1015000008604168006880F30888084708ED00E03B
:101510000D4808B5016841F080010160016801F0E3
:1015200080010091016841F001010160016801F052
:1015300001010091016841F002010160006800F0C2
:101540000200009008BD0000303802400C4810B581
:101550000A4901604FF4E1314160002181600C22B1
:10156000C160C0E904128161C161FFF7E3FE002898
:1015700003D0BDE81040FEF731BF10BD00100140A0
:1015800020280020FEE7FEE770477047FFF74ABAC1
:1015900030B593B030216846FEF74AFE14210CA8FE
:1015A000FEF746FE1D480025016841F080510160AC
:1015B000006800F0805011901948016841F48041A2
:1015C00001600068022400F4804011900120009026
:1015D000000401908001CDE9064008AA0420A8215A
:1015E00082E813000B906846FFF7A0FB08B172B6C3
:1015F000FEE70CA90F2081E831004FF4A0500F90B6
:101600004FF48050109005210CA8FFF7A5FA002890
:1016100001D072B6FEE713B030BD00004038024082
:10162000007000400548016841F470010160034901
:101630004FF00060803908607047000088ED00E0DE
:1016400010B5806B0021C185C184FFF73AFD10BD44
:1016500001680C3151E8002F22F4907241E8002318
:10166000002BF5D10168143151E8002F22F001025E
:1016700041E80023002BF5D1016B012909D1016854
:101680000C3151E8002F22F0100241E80023002B1A
:10169000F5D1202180F8421000210163704708B580
:1016A00090F84210222901D0022008BD82684FF430
:1016B00080539A4201D1016921B1816A9A421BD0BB
:1016C0004AB10AE00268816A5268C2F308020A80DD
:1016D000816A891C08E0026972B10268526802F0EE
:1016E0007F020A70816A491C8162C18D491E09040A
:1016F000090CC18503D01BE002685268F1E701685C
:10170000CA6822F02002CA600168CA6822F48072A6
:10171000CA6001684A6922F001024A61202180F80A
:10172000421000214163026B012A03D0FFF77EFEC5
:10173000002008BD016301680C3151E8002F22F040
:10174000100241E80023002BF5D101680A68D20697
:1017500002D50A6849680091818DFFF7B1FCE7E77F
:1017600070B5044600680169E26821F440511143F4
:1017700001612169A068E269084361691143084376
:101780002168CA6849F20C639A430243CA60206820
:101790004169A26921F440711143416131492068D6
:1017A000884202D03049884202D1FFF77FFA01E037
:1017B000FFF76CFAE2690023192164253226B2F59D
:1017C000004F626828D0A0FB0101930F9200FEF742
:1017D000F7FC0146B0FBF5F06FF01802504301EB47
:1017E000800006EB0010B0FBF5F000F0F002B1FB5A
:1017F000F5F002EB0012B1FBF5F06FF0180358435F
:1018000001EB800006EB0010B0FBF5F000F00F00DC
:1018100021681044886070BDA0FB010192185B41F3
:10182000FEF7CEFC0146B0FBF5F00201B1FBF5F08E
:101830006FF01803584301EB800006EBC000B0FBCB
:10184000F5F000F0F80002EB4002B1FBF5F0584370
:1018500001EB800006EBC000B0FBF5F000F00700E4
:10186000D6E700000010014000140140816282852B
:10187000C28500214164222180F84210016921B112
:101880000168CA6842F48072CA6001684A6942F01D
:1018900001024A610068C16841F02001C160002076
:1018A00070472DE9F843984617460D460446089EB2
:1018B00024E0701C22D0FFF7AFF8A0EB0800B04284
:1018C0001AD8CEB12068C168490717D5802D15D028
:1018D000402D13D00168C94309070FD401680025C2
:1018E000406800902046FFF7B3FE0820606484F84B
:1018F00040500120BDE8F8830320FBE72068006822
:1019000035EA000004D00020B842D2D00020F1E730
:101910000120F9E70148FFF7D5BB0000202800208F
:1019200070B50C46FEF7D6FCFEF768FF4FF0FF36A9
:1019300018B111A000F060F815E0154D2246002303
:1019400029460220FEF71CFF28B112A000F054F82F
:10195000FEF70CFF07E0FEF709FF2968A14204D05B
:1019600012A000F049F8304670BD214619A000F0E1
:1019700043F8002070BD0000466C61736820556E0E
:101980006C6F636B204572726F720D0A000000006D
:1019900000800008466C6173682050726F67726146
:1019A0006D204572726F720D0A000000466C617303
:1019B0006820566572696679204661696C65643A8B
:1019C00020726561645F6261636B203D2025750D47
:1019D0000A000000426F6F746C6F6164657220468C
:1019E0006C6167205570646174656420746F202594
:1019F000750D0A00FEE700000FB4054B10B503A9F2
:101A0000044A029800F028F810BC5DF814FB0000AE
:101A1000191D02081C0000200907090E002804DB1C
:101A200000F1E02080F80014704700F00F0000F192
:101A3000E02080F8141D704702E008C8121F08C19A
:101A4000002AFAD170477047002001E001C1121F3F
:101A5000002AFBD1704700002DE9FF4F8DB09B4657
:101A60000F460446002606E025280BD05A460F995B
:101A70009047641C761C20780028F5D111B03046C0
:101A8000BDE8F08F0025A8460122984900E00543F3
:101A900014F8013F203B02FA03F00842F7D1207806
:101AA0002E2817D114F8010F45F004052A280ED06E
:101AB0006FF02F022078A0F1300109290AD808EB35
:101AC000880102EB410100EB0108641CF2E757F8C2
:101AD000048B641C20786C280DD004DC4C2812D0B8
:101AE0006A2811D104E074280DD07A280CD10AE0BC
:101AF00045F4001507E0617845F48015814202D174
:101B0000641C05F58015641C2278692A45D008DC20
:101B1000002AB3D0582A69D0632A10D0642A08D189
:101B20003BE0702A67D0732A13D0752A5CD0782ADC
:101B30005CD010465A460F999047761CD3E017F8B0
:101B4000040B8DF8000000208DF80100E94601200B
:101B500003E057F8049B4FF0FF3069074FF0000592
:101B600001D40AE06D1C45450DDA8542FADB19F80F
:101B700005100029F6D106E06D1C8542FCDB19F842
:101B800005100029F8D12E4404E019F8010B5A463B
:101B90000F9990476D1EF8D2A5E00A200021CDE9EB
:101BA0000801C5F3025002280DD001CFC117031E52
:101BB00071F100030DDA4FF0000CD0EB0C006CEB70
:101BC00001012D2308E0FF1D27F00707F7E80201B8
:101BD000EDE72B0504D52B238DF8283001233BE0BE
:101BE000EB0739D02023F7E70A2000E0102000217E
:101BF000CDE9080107E01020002145F00405CDE9FA
:101C000008014FF00808C5F3025002280FD001CF99
:101C100000214FF0000A2B071FD5702A0DD0DDE9F7
:101C200008C38CF0100C5CEA030C0CD015E0FF1D0F
:101C300027F00707F7E80201EBE740228DF828209C
:101C40004FF0010A0BE050EA010306D030238DF873
:101C500028308DF8292002239A46582A04D024A23D
:101C60000DF120090B9209E026A2F9E7DDE908232E
:101C7000FEF7A6FA0B9B9B5C09F8013D50EA0102B6
:101C8000F4D1ADEB090020300890680701D44FF083
:101C900001080899884502DDA8EB010000E000205A
:101CA0008046002506E00AA85A46405D0F999047F5
:101CB0006D1C761C5545F6DB04E030205A460F9922
:101CC0009047761CB8F10001A8F10108F5DC05E0A9
:101CD00019F8010B5A460F999047761C0899481E2F
:101CE00008900029F4DC641CC5E600000928010006
:101CF0003031323334353637383961626364656682
:101D00000000000030313233343536373839414243
:101D1000434445460000000013B54FF6FF7301220F
:101D200069460248FFF798FB00981CBD2028002058
:101D300014481549086062B6FEF77CFEFFF728FCE0
:101D4000FFF7E6FBFFF702FC012210491048FFF7FE
:101D50005FFB0E4C0F4E41F6FC254FF47A770EA038
:101D6000FFF74AFE0EA0A168FFF746FEA068A84252
:101D700004D10D4930466268FEF796FA3846FEF700
:101D800097FCECE70000020808ED00E000000020EE
:101D90002028002000000408617070310D0A000046
:101DA00025750D0A00000000200000200000000042
:101DB00000000000010203040607080900000000FB
:101DC00001020304E41D02080000002020000000BE
:101DD000381A0208041E020820000020682C0000A7
:101DE000481A02080000000000280000000000005F
:101DF0000100000010000000000000000024F400BA
:041E000000000000DE
:040000050802018963
:00000001FF
